:101521004103F8004203FA00004103F7004103F9C7
:05153100014103FC0074
:1039C000C2C0C2C3C2C21234F7123948D28AD2BAB4
:0539D000D2AAD2AF22D3
:102E4E001239C012323230A00320A42E7F647E00CD
:102E5E001239A330A00320A41B9003F8E0B402089B
:102E6E007401F01230F8800C9003F8E0B40105E420
:102E7E00F012323230A0FD30A4FA30A20320A62D7B
:102E8E007F647E001239A330A20320A61A9003F8A5
:102E9E00E0700704F01230F8800D9003F8E0B401F2
:102EAE00067402F012319530A2FD30A6FA9003FAA4
:102EBE00E07002A3E0608F9003F8E01460121460DB
:102ECE002224027081122CDE12394812323280090D
:102EDE0012219F1239481230F8E49003FAF0A3F051
:102EEE00022E54122C1E123948123195E49003FA18
:062EFE00F0A3F0022E54C7
:03000B000233E2DB
:1033E200C0E0C0F0C083C082C0D075D000C000C0B1
:1033F20001C002C003C004C005C006C007758CD856
:10340200758AF09003F8E0B401309003F7E004F01D
:10341200E0C394644010E4F0900002E024FFF090D6
:103422000001E034FFF09003FCE004F0E0D3940AE2
:1034320040081223EC9003FCE4F09003F8E0B4029D
:103442000F9003FCE004F0E0D3940A4003121BEE59
:10345200D007D006D005D004D003D002D001D000CE
:0B346200D0D0D082D083D0F0D0E03278
:030013000238832D
:10388300C0E0C083C082C0D075D000C006C007901E
:1038930003FAE0FEA3E0F4FFEEF49003FAF0A3EFE3
:0E38A300F0D007D006D0D0D082D083D0E03253
:1000160002020202C2B28E828282828282020200C0
:1000260008040201FF40404040404040FF000000FD
:100036000000106004180000FF000000000000002F
:1000460081814141211109070105091121C10100E1
:100056000202FAAAABAAFA0202F20302FA020200AA
:1000660000888B48281A0B080848884A3B0000007D
:10007600000004040404FC0404040404FC0000005E
:100086000080402018060100004080403F0000002C
:10009600080888C8A8988FE888888888880808008B
:1000A6000201003F000000FF000010201F000000BA
:1000B6002020101028242229B264281010202000A5
:1000C6000080809F4141211D0121215F4080000069
:1000D60000FC0404FC20104C4B484848C8080800A3
:1000E600000F04040F003048444242414040700073
:1000F60000F808FF08F82018C808090E8828180014
:100106002063211F111930003F44424140407800CE
:10011600048484FC84844044C44444C4444440006D
:100126002060201F109040300F00003F40407000BC
:10013600102C2424A4A465A624242424A4340C006E
:1001460040494929241452897F040A1110202000AD
:1001560000001010F8000000000000000000000081
:10016600000020203F2020000000000000000000CA
:10017600007008080808F0000000000000000000F9
:10018600003028242221300000000000000000007A
:1001960000000000000000FFFEFCF8F0E0C0800058
:1001A60000000000000000FF7F3F1F0F0703010053
:1001B600FDFDFDFD3D4D717D7D7D7D7D7DFDFDFF63
:1001C600F7FBFDFE00BFBFBFBFBFBFBF00FFFFFF06
:1001D600FFFFEF9FFBE7FFFF00FFFFFFFFFFFFFFB4
:1001E6007E7EBEBEDEEEF6F8FEFAF6EEDE3EFEFFE2
:1001F600FDFD0555545505FDFD0DFCFD05FDFDFFF9
:10020600FF7774B7D7E5F4F7F7B777B5C4FFFFFF05
:10021600FFFFFBFBFBFB03FBFBFBFBFB03FFFFFF04
:10022600FF7FBFDFE7F9FEFFFFBF7FBFC0FFFFFF16
:10023600F7F77737576770177777777777F7F7FF97
:10024600FDFEFFC0FFFFFF00FFFFEFDFE0FFFFFF48
:10025600DFDFEFEFD7DBDDD64D9BD7EFEFDFDFFF3D
:10026600FF7F7F60BEBEDEE2FEDEDEA0BF7FFFFF59
:10027600FF03FBFB03DFEFB3B4B7B7B737F7F7FFFF
:10028600FFF0FBFBF0FFCFB7BBBDBDBEBFBF8FFF0F
:10029600FF07F700F707DFE737F7F6F177D7E7FF4E
:1002A600DF9CDEE0EEE6CFFFC0BBBDBEBFBF87FF73
:1002B600001088C43300BEAAAAAAAAAABE8000005B
:1002C600020100FF00020A120242827F02020200BD
:1002D600804020908886808080838C10204080001B
:1002E600008040201807004080403F0000000000CA
:1002F60000000000000000000000000000000000F8
:10030600000036360000000000000000000000007B
:1003160008049392969A92FA94939296FA0202009D
:100326004040472424140CFF04042444241C0000E9
:100336000000FE9292929292929292929E80000079
:1003460040300F00001E121212125E80403F000065
:10035600006070787C7C7C7CFCFC7C7C7C000000F3
:1003660000000000000000007F7F00000000000089
:1003760000000004081020C0C0201008040000007F
:1003860000101814120907000007091214181000AB
:10039600008040E0D0289C5A269448B0A0408000B7
:1003A60000000102060914322D1C0A050301000093
:1003B60000020212620202FE020242320202000041
:1003C60001010101010101FF01010101010101001A
:1003D60000FE2222FE00403C1010FF10101000000C
:1003E600807F0282FF00404242427F4242424000FA
:1003F60010101010FF101010101010FF1010101019
:1004060008080808FF080808080808FF0808080878
:1004160000000000000000000000000000000000D6
:1004260000000000000000000000000000000000C6
:10043600000000FC24242424E222232220000000C1
:100446000484442714040404070404040404040074
:10045600000000FC24242424E222232220000000A1
:100466000404040704040404071424448404040054
:10047600048484FC848410509010FF901116900020
:100486002060201F1010100845827F010609100009
:10049600FFFFFF03DBDBDBDB1DDDDCDDDFFFFFFF5B
:1004A600FB7BBBD8EBFBFBFBF8FBFBFBFBFBFBFF88
:1004B600FFFFFF03DBDBDBDB1DDDDCDDDFFFFFFF3B
:1004C600FBFBFBF8FBFBFBFBF8EBDBBB7BFBFBFF68
:1004D600FB7B7B037B7BEFAF6FEF006FEEE96FFF7C
:1004E600DF9FDFE0EFEFEFF7BA7D80FEF9F6EFFF73
:1004F6000000000000000000002F000000000700C0
:10050600070000147F147F1400242A7F2A12006239
:1005160064081323003649552250000005030000E5
:1005260000001C224100000041221C000014083E6D
:1005360008140008083E0808000000A06000000833
:100546000808080800006060000000201008040287
:10055600003E5149453E0000427F40000042615145
:100566004946002141454B31001814127F100027DF
:1005760045454539003C4A494930000171090503A2
:1005860000364949493600064949291E00003636D3
:100596000000000056360000000814224100001436
:1005A6001414141400004122140800020151090613
:1005B60000324959513E007C1211127C007F494994
:1005C6004936003E41414122007F4141221C007FC5
:1005D60049494941007F09090901003E4149497AD3
:1005E600007F0808087F0000417F4100002040414D
:1005F6003F01007F08142241007F40404040007FB9
:10060600020C027F007F0408107F003E4141413EFC
:10061600007F09090906003E4151215E007F091944
:1006260029460046494949310001017F0101003F41
:100636004040403F001F2040201F003F4038403FC1
:100646000063140814630007087008070061514925
:10065600454300007F41410000552A552A550000B8
:1006660041417F0000040201020400404040404036
:10067600000001020400002054545478007F4844CE
:10068600443800384444442000384444487F003805
:100696005454541800087E0901020018A4A4A47C2E
:1006A600007F080404780000447D400000408084F8
:1006B6007D00007F102844000000417F4000007C40
:1006C60004180478007C080404780038444444384C
:1006D60000FC242424180018242418FC007C080498
:1006E600040800485454542000043F444020003C71
:1006F6004040207C001C2040201C003C4030403CF8
:10070600004428102844001CA0A0A07C0044645487
:100716004C441414141414140000000000000000CB
:100726000000000000000000000000F800000000CB
:10073600000000333000000000100C06100C06000C
:10074600000000000000000040C07840C078400073
:10075600043F04043F040400007088FC08300000D5
:10076600001820FF211E0000F008F000E01800002D
:1007760000211C031E211E0000F0088870000000E6
:100786001E2123241927211010160E000000000038
:100796000000000000000000000000E01804020055
:1007A600000000071820400000020418E0000000C6
:1007B6000040201807000000404080F080404000C4
:1007C6000202010F01020200000000F0000000001A
:1007D6000101011F010101000000000000000000EE
:1007E60080B0700000000000000000000000000063
:1007F60000010101010101010000000000000000EC
:100806000030300000000000000000008060180486
:10081600006018060100000000E010080810E00063
:10082600000F102020100F00001010F8000000002C
:100836000020203F20200000007008080888700073
:1008460000302824222130000030088888483000F3
:100856000018202020110E000000C02010F8000013
:1008660000070424243F240000F8088888080800AC
:100876000019212020110E0000E0108888180000C1
:10088600000F112020110E0000380808C838080093
:100896000000003F00000000007088080888700013
:1008A600001C222121221C0000E010080810E00094
:1008B6000000312222110F00000000C0C00000001D
:1008C6000000003030000000000000800000000042
:1008D600000080600000000000008040201008003A
:1008E6000001020408102000404040404040400003
:1008F60004040404040404000008102040800000DE
:100906000020100804020100007048080808F000E2
:100916000000003036010000C030C828E810E000B2
:100926000718272423140B000000C038E00000003D
:10093600203C23020227382008F8888888700000A7
:10094600203F202020110E00C0300808080838007B
:10095600071820202010080008F808080810E000F2
:10096600203F202020100F0008F88888E808100093
:10097600203F20202320180008F88888E808100067
:10098600203F200003000000C0300808083800009F
:1009960007182020221E020008F808000008F808A0
:1009A600203F210101213F20000808F80808000027
:1009B6000020203F2020000000000808F80808005A
:1009C600C08080807F00000008F888C028180800D2
:1009D600203F20012638200008F80800000000000B
:1009E600203F20202020300008F8F800F8F8080002
:1009F600203F003F003F200008F830C00008F808FC
:100A0600203F200007183F00E01008080810E0000B
:100A16000F10202020100F0008F808080808F00022
:100A2600203F210101010000E01008080810E00045
:100A36000F18242438504F0008F8888888887000DA
:100A4600203F2000030C302000708808080838007A
:100A56000038202121221C00180808F80808180070
:100A66000000203F2000000008F808000008F808F1
:100A7600001F202020201F000878880000C83808A2
:100A8600000007380E010000F80800F80008F8001A
:100A9600033C0700073C03000818688080681808B4
:100AA60020302C03032C30200838C800C838080032
:100AB6000000203F2000000010080808C838080081
:100AC6002038262120201800000000FE0202020025
:100AD6000000007F40404000000C30C000000000D5
:100AE600000000010638C00000020202FE000000FD
:100AF600004040407F0000000000040202020400A3
:100B060000000000000000000000000000000000DF
:100B160080808080808080800002020400000000C7
:100B260000000000000000000000808080800000BF
:100B36000019242222223F2008F8008080000000AD
:100B4600003F112020110E00000000808080000070
:100B5600000E112020201100000000808088F8007F
:100B6600000E112020103F200000808080800000B1
:100B7600001F222222221300008080F08888881815
:100B86000020203F20200000000080808080800020
:100B9600006B94949493600008F8008080800000B5
:100BA600203F210000203F20008098980000000090
:100BB6000020203F202000000000008098980000C0
:100BC60000C08080807F000008F8000080808000E0
:100BD600203F24022D302000000808F80000000005
:100BE6000020203F202000008080808080808000C0
:100BF600203F20003F20003F808000808080000052
:100C0600203F210000203F200000808080800000DF
:100C1600001F202020201F00808000808000000010
:100C260080FFA12020110E0000000080808080003F
:100C3600000E112020A0FF80808080008080800030
:100C460020203F212000010000008080808080005D
:100C56000033242424241900008080E080800000D2
:100C66000000001F2020000080800000008080001F
:100C7600001F202020103F20808080000080808080
:100C860000010E3008060100808000800080808010
:100C96000F300C030C300F00008080008080800035
:100CA6000020312E0E312000808080000080808060
:100CB60080818E7018060100008080808080800010
:100CC6000021302C2221300000000000807C02022E
:100CD60000000000003F404000000000FF00000050
:100CE60000000000FF0000000002027C80000000FF
:100CF6000040403F0000000000060101020204041B
:100D060000000000000000000000000000000000DD
:080D16000000000000000000D5
:10396800D3EF9400EE940040147D6E7C00ED1D7042
:0D397800011CED4C70F7EF1F70E61E80E3A0
:01398500221F
:0939EA00D2B7D295C295C2B722F2
:0939F300C2B7C295D2B7D29522E9
:0738B100AD071239EA7F7830
:1038B800E4FEEF30E704D2958002C295D2B7C2B7D2
:0F38C800EF25E0FF0EEEB408E9D295D2B7C2B7F4
:0138D70022CE
:0D39860074162BF58274003AF583E493FF6C
:103993001238B17F401238B8AF051238B80239F384
:0539D5001239DAE4FFE5
:1039DA001238B1E4FF1238B8AF051238B80239F319
:04392600A3E004FD19
:10392A00AC07ED24B0FF1239DAEC54F0C4540F445A
:0E393A0010FF1239DAEC540F4401FF0239DAA3
:10394800E4FCEC24B0FF1239D57F101239DAE4FB1D
:0F395800E4FF1239930BEBB480F60CECB408E3E8
:01396700223D
:1034F7007FF47E011239687FAE1239D57F101239F9
:10350700DA7F411239DA7FB01239DA7F811239DA7C
:103517007FFF1239DA7FA11239DA7FA61239DA7FF3
:10352700A81239DA7F3F1239DA7FD31239D57FC82B
:103537001239DA7FD51239DA7F801239DA7FD81259
:1035470039DA7F051239DA7FD91239DA7FF1123980
:10355700DA7FDA1239DA7F121239DA7FDB1239DAD7
:103567007F301239DA7F8D1239DA7F141239DA7F18
:07357700AF1239DA023948F6
:0A370C009003CFECF0A3EDF0AB0743
:10371600E4FCEBD39478400DE4FBE004F0700690F3
:1037260003CFE004F0AF039003CFA3E0FD12392AE4
:10373600E4FCEC900D0E93FF1239930CECB408F2F6
:10374600AF039003CF123926E4FCEC900D1693FFDD
:083756001239930CECB408F2E7
:01375E002248
:102B5B009003CFEFF0A3ECF0A3EDF0A3EBF0A3EA1F
:042B6B00F0A3E9F0FA
:102B6F00E4A3F0FCA3F09003D2E0FBA3E0FAA3E010
:102B7F00F99003D6E0F58275830012256370030286
:102B8F002C1D24E09003D5F09003CFE0D394784030
:102B9F0010E4F09003D1E02402F09003D0E0340071
:102BAF00F09003CFE0FFA3A3E0FD12392AE4FC90DD
:102BBF0003D5E075F010A42CF582E435F0F583E52C
:102BCF0082241EF582E583340712398E0CECB4088B
:102BDF00DE9003CFE0FFA3123926E4FC9003D5E08B
:102BEF0075F010A42CF582E435F0F583E5822426E8
:102BFF00F582E583340712398E0CECB408DE9003AE
:0E2C0F00CFE02408F09003D6E004F0022B750D
:012C1D002294
:06375F007A007D017C00F0
:0A3765009003CFECF0A3EDF0A907EC
:10376F00E4FCAE02EB7805C333CE33CED8F9FBAA17
:10377F0006AF019003CFA3E0FD12392AE4FC123902
:10378F00860BBB00010A0CECB410F3AF019003CF12
:10379F00123926E4FC1239860BBB00010A0CECB47B
:0237AF0010F315
:0137B10022F5
:1029CD009003CFEFF0A3ECF0A3EDF0A3EAF0A3EBAF
:0129DD00F009
:1029DE00E49003D9F0A3F09003D4E0FAA3E0FB7CDB
:1029EE00007D08FFAE021225E5ED4C7011FC7D084E
:1029FE00AF03AE021225E59003DCEFF080159003D5
:102A0E00D4E0FEA3E0FF7C007D081225E5EF0490E4
:102A1E0003DCF09003D0A3E09003DCF09003DCE045
:102A2E00FDFFD39003D5E09F7480F89003D4E0644B
:102A3E00809840539003CFE0FF12392AE09003DBD9
:102A4E00F09003DBE0FFD39003D3E09F7480F89007
:102A5E0003D2E064809840279003D6E0FBA3E0FA0F
:102A6E00A3E0F9A3E475F00112261B85F082F5832D
:102A7E00122563FF1239939003DBE004F080C290BD
:072A8E0003DCE004F0809579
:012A9500221E
:103232001239487B0C7A007D017C00E4FF1237656D
:103242007B0D7F1012375F7B0E7F1F12375F7B0F64
:103252007A007D017C007F2F1237657B107A007D1A
:10326200017C007F3F1237657B117A007D017C0073
:103272007F4F1237657B057A007D037C007F101239
:1032820037657B067A007D037C007F1F1237657BE2
:10329200077A007D037C007F2F1237657B217A003D
:1032A2007D057C007F101237657B227A007D057CCC
:1032B200007F1F1237657B237A007D057C007F2FFC
:0332C2000237656B
:1030F800123948E4FBFA7D01FC7F101237657B0129
:103108007A007D017C007F1F1237657B027A007D83
:10311800017C007F2F1237657B037A007D017C00DC
:103128007F3F1237657B047A007D017C007F4F1258
:1031380037657B0C7A007D037C00E4FF1237657BE2
:10314800127A007D037C007F101237657B137A00AA
:103158007D037C007F1F1237657B147A007D037C1A
:10316800007F2F1237657B217A007D057C007F1058
:103178001237657B227A007D057C007F1F12376538
:0D3188007B237A007D057C007F2F023765D8
:10319500123948E4FBFA7D01FC7F101237657B018B
:1031A5007A007D017C007F1F1237657B027A007DE6
:1031B500017C007F2F1237657B037A007D017C003F
:1031C5007F3F1237657B047A007D017C007F4F12BB
:1031D50037657B057A007D037C007F101237657BA0
:1031E500067A007D037C007F1F1237657B077A0016
:1031F5007D037C007F2F1237657B0C7A007D057C73
:1032050000E4FF1237657B247A007D057C007F1082
:103215001237657B257A007D057C007F1F12376597
:0D3225007B267A007D057C007F2F02376537
:100D1E00256400000000000000000000000000003C
:100D2E0000000000000000000000000000000000B5
:100D3E0000000000000000000000000000000000A5
:100D4E000000000000000000000000000000000095
:100D5E000000000000000000000000000000000085
:100D6E000000000000000000000000000000000075
:100D7E000000000000000000000000000000000065
:100D8E000000000000000000000000000000000055
:100D9E000000000000000000000000000000000045
:100DAE000000000000000000000000000000000035
:100DBE000000000000000000000000000000000025
:100DCE000000000000000000000000000000000015
:100DDE000000000000000000000000000000000005
:100DEE0000000000000000000000000000000000F5
:100DFE0000000000000000000000000000000000E5
:100E0E0000000000000000000000000000000000D4
:100E1E0000000000000000000000000000C0F038DC
:100E2E001C0C0E060E0C1C38F0E0800000000000BA
:100E3E0070F0F080000000000000003838F8F8383C
:100E4E003838383838383838383800F0F070707034
:100E5E00707C7E7C70707070F0F00000E0E0F0F856
:100E6E00F800000070F07070FEFE707070FEFE7084
:100E7E0070707070F8F818F8F800F8F880FCFC80C4
:100E8E0080808000000000000000000000000000D4
:100E9E00000000000000000000000000FFFF00CE78
:100EAE00CF0E00000000CFCE0083FF00CCFCFC7004
:100EBE0070FFFFFFFE7070707070301C1CFFFF1C07
:100ECE001C0CFCFC0C0CFCFC0C0C0CC1E1E777BF01
:100EDE00FFFFFFE7E7E7F73F3F0100000100FFFFDD
:100EEE00FF000020E177BFFEFF37303030FFFF33C9
:100EFE00373E3400FFFFC6FFFF1EFFE3E1FFFFE1B9
:100F0E00E1E1C10000000000000000000000000050
:100F1E00000000000000000000000000030F1C395C
:100F2E0077EFCECCCCCE67713C0F030000000000F3
:100F3E00787F3F070100000000000038381F1FCEE9
:100F4E00EEF87F0F0000FFFFE0FC7CECEEFF77FB7E
:100F5E00DDCEE7FF7F030F3E7C78300000003F3F81
:100F6E003F0000005CDECFE3FFFFE0F83F0F0F3FD6
:100F7E00F8F0C0C0FFFFC1FFFFE0E0E0E0FFFFE0E0
:100F8E00E0E0E000000000000000000000000000B3
:100F9E000000000000000000000000000000000043
:100FAE000000000000000000000000000000000033
:100FBE000000000000000000000000000000000122
:100FCE000100000000000000000000000000000111
:100FDE000101010000000000000000000000000000
:100FEE0000000000000000000001010000000000F1
:100FFE0000010100010001010000000000000000DE
:10100E0000000000000000000000000000000000D2
:10101E0000000000000000000000000000000000C2
:10102E0000000000000000000000000000000000B2
:10103E0000000000000000000000000000000000A2
:10121E000000000000000000000000808080808040
:10122E008000000000000000000000000000000030
:10123E0000000000000000000000000000000000A0
:10124E008080000000000000000000000000000090
:10125E000000000000000000008080000000008000
:10126E008080000000000000000000000000000070
:10127E0000808080000000000000000000000000E0
:10128E000000000000000000000000000000000050
:10129E000000000000C0F83C0EE7E3C301010101AD
:1012AE00E3E3C61E7CF0008686FEFE8686C0C6C6BA
:1012BE00C6C6C6C6C6C6C6C0003C3C6C6C6CECED61
:1012CE00EF6F6F6C6C6CECFC3C3C001C0E06070761
:1012DE008EFEFC780E2E7EEECEFFFF2E0E0E0EFF35
:1012EE00FF7F6EEECE0E00FFFFE7E7FFFFF0FF3E43
:1012FE0030FFFFFF3030303000808080000EFEFC6B
:10130E00F8E0800000000000000000000000000077
:10131E0000000000000F3FF0C09C3C7060606060F9
:10132E00703C8CE0F83F03C1C1FFFF6171F1E1FF3A
:10133E003F0101FFFF0181E1E4EC6EFEB7FFFFEF1D
:10134E007FFFFCEE3EFFE7C3808000F0F8FCDECFAF
:10135E00C7C3C1C0C6EEF77B3FFFFC0787C7F7FFC9
:10136E007FFFC787070700FFFF1C1CFFFF030F0C43
:10137E000CFFFFFF0C0C0C00000F0F070787FFFF81
:10138E007F3F0F0707070707070000000000000058
:10139E000000000000000000010303070606060619
:1013AE0007030101000000010100000E0F070301F9
:1013BE0000000007070607070307070303070706D2
:1013CE0006070701000001010303000101010101ED
:1013DE0001010101000206060707070F07030100BE
:1013EE00000103070F06060F070606070707070784
:1013FE0007070707070707070000000000030301A0
:10140E0000000000000000000000000000000000CE
:10141E0000000000000000000000000000000000BE
:10142E0000000000000000000000000000000000AE
:10143E00000000000000000000000000000000009E
:10144E00000000000000000000000000000000008E
:10145E00000000000000000000000000000000007E
:10146E00000000000000000000000000000000006E
:10147E00000000000000000000000000000000005E
:10148E00000000000000000000000000000000004E
:10149E00000000000000000000000000000000003E
:1014AE00000000000000000000000000000000002E
:1014BE00000000000000000000000000000000001E
:1014CE00000000000000000000000000000000000E
:1014DE0000000000000000000000000000000000FE
:1014EE0000000000000000000000000000000000EE
:1014FE0000000000000000000000000000000000DE
:10150E0000000000000000000000000000000000CD
:03151E00000000CA
:1015360042000B000042000D00004203BB000042C7
:1015460003BD0000420091000163280093000000E3
:101556000000000000000000000000000000000085
:101566000000000000000000000000000000000075
:101576000000000000000000000000000000000065
:101586000000000000000000000000000000000055
:10187600000000000042000100B4410003004100E6
:0218860004005C
:102CDE00123948E490000BF0A3F0A3F0A3F0900398
:102CEE00BBF0A3F0A3F0A3F0900091F0A304F0C208
:102CFE00C3C2C29003FAE07002A3E07003022D95E6
:102D0E00122F04123659121F001232C59003BBE067
:102D1E007004A3E0640370309003FAF0A3F012394C
:102D2E00489003D4E4F0A37408F0A374FFF0A374E6
:102D3E000DF0A37421F07B807A00E4FDFCFF1229D4
:102D4E00CD7F107E271239A39003BDE07004A3E05F
:102D5E006403709F9003FAF0A3F01239489003D4E5
:102D6E00E4F0A37408F0A374FFF0A37411F0A3743D
:102D7E0021F07B807A00E4FDFCFF1229CD7F107ECE
:082D8E00271239A3022D0122D6
:102F040030A00930A10630A20320A3497F647E00CB
:102F14001239A320A00A90000BE4F0A374028032BB
:102F240020A10990000BE4F0A304802620A218122B
:102F340038017C007D031225E5ED2401FEE43C907C
:102F4400000BF0A3CE800B20A30B90000BE4F0A3A6
:102F54007403F0D2C330A40930A50630A60320A719
:102F6400497F647E001239A320A40A90000DE4F086
:102F7400A37402803220A50990000DE4F0A304801C
:102F84002620A6181238017C007D031225E5ED24C5
:102F940001FEE43C90000DF0A3CE800B20A70B9023
:0B2FA400000DE4F0A37403F0D2C22281
:103659007B187A007D017C00E4FF1237659003D264
:1036690074FFF0A3740DF0A3741EF0900091E0FFB5
:10367900A3E09003D5CFF0A3EFF07B017A0379BFE4
:103689001218EE7B017A0379BF7D017C007F10124D
:103699002B5B7B197A007D017C007F261237657BC5
:0C36A900177A007D017C007F3602376537
:1032C5007B157A007D067C00E4FF1237657B167A54
:1032D500007D067C007F101237657B177A007D061E
:1032E5007C007F1F1237659003D274FFF0A3740D25
:1032F500F0A3741EF09003BBE0FFA3E09003D5CFCD
:10330500F0A3EFF07B017A0379BF1218EE7B017A07
:103315000379BF7D067C007F3F122B5B9003D2743F
:10332500FFF0A3740DF0A3741EF09003BDE0FFA39E
:10333500E09003D5CFF0A3EFF07B017A0379BF12BC
:1033450018EE7B017A0379BF7D067C007F5F022B37
:013355005B1C
:101F000090000BE0FEA3E0FF4E7003022150A3E01F
:101F10007002A3E07003022150EF64014E700A7B4F
:101F20001AFA7D03FCFF12376590000BE07004A3E2
:101F3000E06402700A7B1BFA7D03FCFF1237659098
:101F4000000BE07004A3E06403700A7B1CFA7D03BD
:101F5000FCFF12376590000DE07004A3E06401708F
:101F60000B7B1AFA7D03FC7F6F12376590000DE042
:101F70007004A3E06402700B7B1BFA7D03FC7F6F8F
:101F800012376590000DE07004A3E06403700B7BD2
:101F90001CFA7D03FC7F6F12376590000DE0FEA3F5
:101FA000E0FF90000BE06E7003A3E06F70527B1FA8
:101FB000FA7D03FC7F1F1237657B1D7A007D037C51
:101FC000007F2F1237657B197A007D037C007F3FED
:101FD0001237657B1F7A007D037C007F4F123765C7
:101FE000E490000BF0A3F0A3F0A3F0C2C3C2C29030
:101FF0000092E004F07006900091E004F0022149A4
:1020000090000BE07004A3E06401700C90000DE000
:102010007004A3E06402602990000BE0FEA3E0FFDF
:1020200064024E700AA3E07004A3E064036012EF40
:1020300064034E706E90000DE07004A3E0640170C4
:10204000627B087A007D037C007F1F1237657B0965
:102050007A007D037C007F2F1237657B0A7A007D32
:10206000037C007F3F1237657B1E7A007D037C0076
:102070007F4F123765E490000BF0A3F0A3F0A3F0BC
:10208000C2C3C2C2900092E004F07006900091E0DA
:1020900004F09003BCE004F070069003BBE004F091
:1020A00002214990000BE07004A3E06401700C90E1
:1020B000000DE07004A3E06403602F90000BE0FECD
:1020C000A3E0FF64024E700AA3E07004A3E0640181
:1020D0006018EF64034E600302219E90000DE070D3
:1020E00004A3E06402600302219E7B087A007D0362
:1020F0007C007F1F1237657B097A007D037C007F9F
:102100002F1237657B0B7A007D037C007F3F1237EF
:10211000657B1E7A007D037C007F4F123765E4905B
:10212000000BF0A3F0A3F0A3F0C2C3C2C2900092D0
:10213000E004F07006900091E004F09003BEE0042B
:10214000F070069003BDE004F07F887E130239A38F
:102150007B207A007D037C00E4FF1237657B207AC8
:10216000007D037C007F1F1237657B207A007D0392
:102170007C007F2F1237657B207A007D037C007FF7
:102180003F1237657B207A007D037C007F4F12373A
:0F219000657B207A007D037C007F6F123765220C
:10219F00900001E4F0A374B4F0E49003BBF0A3F05B
:1021AF00A3F0A3F0900003F0A3F01237B212394856
:1021BF001238D812346D122D961235F21236B5121E
:1021CF0028F21223EC758901758CD8758AF0D2AF7D
:1021DF00D2A9D28C9003FAE07002A3E0700302231D
:1021EF00E71230581226BA90008CE0FF90000FE0F3
:1021FF00B5072390008DE0FF90002DE0B5071790F5
:10220F00004BE004F09003BCE004F070069003BBB9
:10221F00E004F0122D9690008CE0FF90004DE0B599
:10222F00072390008DE0FF90006BE0B5071790003B
:10223F0089E004F09003BEE004F070069003BDE067
:10224F0004F0122D969003F9E07002A3E0600C12D7
:10225F0028F21238D81235F21236B5900003E0701A
:10226F0006A3E06401600C9003BBE07004A3E0647C
:10227F00147035E49003FAF0A3F0C2A9C28C12399E
:10228F00489003D4E4F0A37408F0A374FFF0A37490
:10229F000DF0A37421F07B807A00E4FDFCFF12297E
:1022AF00CD7F107E271239A3900003E0B40104A361
:1022BF00E0600C9003BDE07004A3E064147035E49B
:1022CF009003FAF0A3F0C2A9C28C1239489003D43C
:1022DF00E4F0A37408F0A374FFF0A37411F0A374D7
:1022EF0021F07B807A00E4FDFCFF1229CD7F107E68
:1022FF00271239A3900003E0B40106A3E064016044
:10230F000D900001E07002A3E060030221E3C2A977
:10231F00C28C9003BDE0FEA3E0FFD39003BCE09F0F
:10232F009003BBE09E402CE49003FAF0A3F0123927
:10233F00489003D4E4F0A37408F0A374FFF0A374DF
:10234F000DF0A37421F07B807A00E4FDFCFF1229CD
:10235F00CD807B9003BDE0FEA3E0FFC39003BCE004
:10236F009F9003BBE09EE49003FA5028F0A3F01275
:10237F0039489003D4E4F0A37408F0A374FFF0A3DA
:10238F007411F0A37421F07B807A00E4FDFCFF123E
:10239F0029CD803AF0A3F01239487B1F7A007D03D4
:1023AF007C007F1F1237657B1D7A007D037C007FC9
:1023BF002F1237657B197A007D037C007F3F123720
:1023CF00657B1F7A007D037C007F4F1237657F107E
:0D23DF007E271239A30221E3C2A9C28C227D
:1036B500E49003CFF09003CFE0FDC3940850477F1B
:1036C5000212392AE49003D0F09003D0E0FFC394AE
:1036D50065502B9003CFE0FE75F008EFA42493F519
:1036E50082E5F03400F583E5822EF582E43583F535
:1036F50083E0FF1239939003D0E004F080CB900370
:06370500CFE004F080AFEC
:01370B00229B
:102FAF00740F2CF582E43400F583E0FF742D2CF5BB
:0A2FBF0082E43400F583E0FD7B019D
:102FC900E49003D5F0EFD3947F4003023057ED949A
:102FD9003F507BED131313541F9003D4F0ED5407A6
:102FE900FE7401A806088002C333D8FC9003D5F00B
:102FF900EB9003D4602AE0FE75F008EFA42493F562
:1030090082E5F03400F583E5822EF582E43583F517
:1030190083C083C082E0FF9003D5E0FEEF4E802994
:10302900E0FE75F008EFA42493F582E5F03400F58D
:1030390083E5822EF582E43583F583C083C082E07F
:0E304900FF9003D5E0F4FEEF5ED082D083F05E
:013057002256
:092A96009003D2F07B64FDE4FF23
:0F2A9F009003D0EDF09003CFEFF09003D1EBF068
:102AAE006F7025FA9003D0E0FE9003D2E0C39EFF34
:102ABE00EAC39F4003022B5A9003CFE0FFEE2AFD9C
:102ACE007B01122FC90A80DC9003D2E0F99003D06B
:102ADE00E0FC69701EFA9003CFE0FF9003D1E0C3D3
:102AEE009FFEEAC39E5065EF2AFF9003D0122FC5BA
:102AFE000A80E3C3E99CFF9003CFE0FE9003D1E090
:102B0E00C39EFDEF75F00AA4FFAEF07C0012259077
:102B1E009003D3EFF0E4FA9003CFE0FB9003D1E003
:102B2E00C39BFFEAC39F50249003D3E0FFEA8FF0CC
:102B3E00A4FFAEF07C007D0A1225909003D0E02F0A
:0C2B4E00FDEB2AFF7B01122FC90A80CB8F
:012B5A002258
:1038D8007401122A96743F122A969003D2743FF00C
:1038E800E4FB7D01FF122A9F9003D2743FF07B64B2
:0738F8007D017F64022A9F9D
:1028F2009003D274FFF0A3740DF0A3741EF0900045
:1029020001E0FFA3E09003D5CFF0A3EFF07B017AC3
:102912000379BF1218EE7B017A0379BFE4FDFC7FD5
:1029220068122B5BC3900002E09464900001E09473
:10293200005008E4FDFC7F7812370CC3900002E0DF
:10294200940A900001E094005008E4FDFC7F7012AC
:10295200370C9003D274FFF0A3740DF0A3741EF031
:102962009003BBE0FFA3E09003D5CFF0A3EFF07B91
:10297200017A0379BF1218EE7B017A0379BF7D03D6
:102982007C007F68122B5B9003D274FFF0A3740D5E
:10299200F0A3741EF09003BDE0FFA3E09003D5CF37
:1029A200F0A3EFF07B017A0379BF1218EE7B017A74
:1029B2000379BF7D067C007F68122B5B900001E0EB
:0B29C2007002A3E07004C2A9C28C22C6
:10346D0090000F740AF090002D7414F090001074F9
:10347D0009F090002E7414F09000117408F0900073
:10348D002F7414F09000127407F09000307414F043
:10349D009000137406F09000317414F090004B748A
:1034AD0005F0A314F0A3745AF090006B7428F090FB
:1034BD00004E745BF090006C7428F090004F745CBB
:1034CD00F090006D7428F0900050745DF090006ED7
:1034DD007428F0900051745EF090006F7428F09095
:0A34ED0000897405F0A37402F022B8
:1023EC0090004BE0FF240EF582E43400F583E0907E
:1023FC00008BF0742C2FF582E43400F583E0900010
:10240C008FF090004BE014FEEED394004033740E2A
:10241C002EF582E43400F583E0FF740F2EF582E490
:10242C003400F583EFF0742C2EF582E43400F58340
:10243C00E0FF742D2EF582E43400F583EFF01E805E
:10244C00C790004CE0FDB4010F900010E090000F1D
:10245C00F090002EE014803BEDB4020F900010E0E1
:10246C001490000FF090002EE0802890004CE0FDBE
:10247C00B4030F900010E090000FF090002EE004D9
:10248C008011EDB40411900010E00490000FF09056
:10249C00002EE090002DF0900089E0FF244CF58296
:1024AC00E43400F583E090008EF0746A2FF582E43A
:1024BC003400F583E0900090F0900089E014FEEE7B
:1024CC00D394004033744C2EF582E43400F583E051
:1024DC00FF744D2EF582E43400F583EFF0746A2E10
:1024EC00F582E43400F583E0FF746B2EF582E4345E
:1024FC0000F583EFF01E80C790008AE0FFB4010F57
:10250C0090004EE090004DF090006CE014803BEF9A
:10251C00B4020F90004EE01490004DF090006CE06F
:10252C00802890008AE0FFB4030F90004EE09000EA
:10253C004DF090006CE0048011EFB4041190004E4B
:10254C00E00490004DF090006CE090006BF0900374
:06255C00F9E4F0A304F015
:012562002256
:1035F20090008BE0FF90008FE0FDE4FB122FC9E406
:10360200FC90004BE0FFECC39F5006122FAF0C80E2
:10361200F090008EE0FF900090E0FDE4FB122FC9D5
:10362200E4FC900089E0FFECC39F501A744D2CF526
:1036320082E43400F583E0FF746B2CF582E43400FD
:10364200122FC30C80DC90008CE0FFA3122FC5E484
:063652009003F9F0A3F063
:01365800224F
:1030580030A00930A10630A20320A3457F647E007A
:103068001239A320A00D90004CE064036033740172
:10307800F0802E20A10D90004CE0640460237402BF
:10308800F0801E20A20D90004CE0640160137403D0
:10309800F0800E20A30B90004CE0640260037404DF
:1030A800F030A40930A50630A60320A7427F647E2D
:1030B800001239A320A40C90008AE06403603074E5
:1030C80001F02220A50C90008AE0640460217402BB
:1030D800F02220A60C90008AE0640160127403F0CC
:1030E8002220A70B90008AE0640260037404F02297
:102D96001238017C007D631225E5ED0490008CF06D
:102DA6001238017C007D3C1225E5ED240290008D51
:102DB600F0900089E0FF90004BE0FEC39F9003CFA8
:102DC6004004EEF08002EFF0E4FF9003CFE0FEEF68
:102DD600C39E5073740F2FF582E43400F583E0FE32
:102DE60090008CE0FDEEB50515742D2FF582E434C8
:102DF60000F583E0FE90008DE0FCEE6C6023744DE0
:102E06002FF582E43400F583E06D7038746B2FF58E
:102E160082E43400F583E0FE90008DE0FDEEB5051A
:102E2600231238017C007D631225E5ED0490008CA9
:102E3600F01238017C007D3C1225E5ED240290005D
:072E46008DF0E4FF0F808313
:012E4D002262
:1026BA0090000FE060116464600D90002DE0FF64EB
:1026CA00016004EFB43F069000037401F090004DDE
:1026DA00E060116464600D90006BE0FF64016004C7
:1026EA00EFB43F069000047401F07F0190004BE0C4
:1026FA00FEEFC39E502F740F2FF582E43400F5834A
:10270A00E0FE90000FE0B50619742D2FF582E4342F
:10271A0000F583E0FE90002DE0B5060690000374F4
:10272A0001F00F80C7E4FF900089E0FEEFC39E50DE
:10273A002F744D2FF582E43400F583E0FE90000FEC
:10274A00E0B50619746B2FF582E43400F583E0FED8
:10275A0090002DE0B506069000037401F00F80C7C3
:10276A007F01900089E0FEEFC39E502F744D2FF534
:10277A0082E43400F583E0FE90004DE0B50619745A
:10278A006B2FF582E43400F583E0FE90006BE0B530
:10279A0006069000047401F00F80C7E4FF90004B16
:1027AA00E0FEEFC39E502F740F2FF582E43400F53C
:1027BA0083E0FE90004DE0B50619742D2FF582E4F2
:1027CA003400F583E0FE90006BE0B5060690000445
:0627DA007401F00F80C73E
:0127E00022D6
:1037B200E4FCE4FAAF04AD02E4FB122FC90AEAB456
:1037C20040F20CECB465EBE4FC740F2CF582E434AB
:1037D20000F583E4F0742D2CF582E43400F583E4E3
:1037E200F0744D2CF582E43400F583E4F0746B2C14
:0E37F200F582E43400F583E4F00CECB41ECB59
:0138000022A5
:102C1E001237B21239481238D81227E112357E1205
:102C2E0036B5758901758CD8758AF0D2AFD2A9D216
:102C3E008C9003FAE07002A3E07003022CD91238D4
:102C4E004E900000E060091238D812357E1236B56B
:102C5E00900007E0B40A35E49003FAF0A3F0C2A99D
:102C6E00C28C1239489003D4E4F0A37408F0A37414
:102C7E00FFF0A37411F0A37421F07B807A00E4FDC1
:102C8E00FCFF1229CD7F107E271239A3900007E09A
:102C9E00B45A9EE49003FAF0A3F0C2A9C28C123982
:102CAE00489003D4E4F0A37408F0A374FFF0A37467
:102CBE000DF0A37421F07B807A00E4FDFCFF122955
:102CCE00CD7F107E271239A3022C3FC2A9C28C22BF
:1027E10090000F740AF090002D741BF0900010748B
:1027F1000AF090002E741CF0900011740AF0900001
:102801002F741DF0900012740AF0900030741EF0C5
:10281100900013740AF0900031741FF0900014744A
:102821000AF09000327420F0900015740AF09000C4
:10283100337421F0900016740AF09000347422F081
:10284100900017740AF09000357423F0900018740A
:102851000AF09000367424F090004B740AF0E4A35F
:10286100F0A3745AF090006B741BF090004E745AF0
:10287100F090006C741CF090004F745AF090006D51
:10288100741DF0900050745AF090006E741EF09018
:102891000051745AF090006F741FF0900052745AF6
:1028A100F09000707420F0900053745AF090007111
:1028B1007421F0900054745AF09000727422F090D8
:1028C1000055745AF09000737423F0900056745AB6
:1028D100F09000747424F0900089740AF0E4A3F07D
:1028E100900007740CF0A3741EF0A37401F0A3F020
:0128F10022C4
:10357E0090008BE0FF90008FE0FDE4FB122FC9E47A
:10358E00FC90004BE0FFECC39F5006122FAF0C8057
:10359E00F090008EE0FF900090E0FDE4FB122FC94A
:1035AE00E4FC900089E0FFECC39F501A744D2CF59B
:1035BE0082E43400F583E0FF746B2CF582E4340072
:1035CE00122FC30C80DCE4900000F0900005E0FFA9
:1035DE00A3E0FDE4FB122FC9900007E0FFA3E0FD7E
:0435EE000B022FC9D4
:10384E0020A00890004C7405F0801020A208900073
:10385E004C7406F08005E490004CF020A407900014
:10386E008A7405F02220A60790008A7406F022E4DE
:05387E0090008AF02219
:101BEE00900000E06003021EFF90004CE064057060
:101BFE007A90002DE06402607290004BE0FE240E9D
:101C0E00F582E43400F583E090008BF0742C2EF511
:101C1E0082E43400F583E090008FF090004BE014E6
:101C2E00FCECD394004033740E2CF582E43400F5B2
:101C3E0083E0FE740F2CF582E43400F583EEF0742D
:101C4E002C2CF582E43400F583E0FE742D2CF58205
:101C5E00E43400F583EEF01C80C7900010E0900095
:101C6E000FF090002EE01490002DF090004CE064E8
:101C7E00066003021D2290004BE0242CF582E43412
:101C8E0000F583E0643E7003021D2290000FE09089
:101C9E00008BF090002DE090008FF0E4FC90004B54
:101CAE00E014FFECC39F503374102CF582E4340023
:101CBE00F583E0FF740F2CF582E43400F583EFF02A
:101CCE00742E2CF582E43400F583E0FF742D2CF590
:101CDE0082E43400F583EFF00C80C290004BE0FFFD
:101CEE00240DF582E43400F583E0FE740E2FF582A8
:101CFE00E43400F583EEF090004BE0FF242BF582E8
:101D0E00E43400F583E004FE742C2FF582E43400F5
:101D1E00F583EEF090008AE06405707A90006BE037
:101D2E0064026072900089E0FF244CF582E4340076
:101D3E00F583E090008EF0746A2FF582E43400F59E
:101D4E0083E0900090F0900089E014FCECD39400B6
:101D5E004033744C2CF582E43400F583E0FF744D6F
:101D6E002CF582E43400F583EFF0746A2CF582E4EE
:101D7E003400F583E0FF746B2CF582E43400F583B8
:101D8E00EFF01C80C790004EE090004DF090006C7C
:101D9E00E01490006BF090008AE064066003021E6F
:101DAE004D900089E0246AF582E43400F583E06406
:101DBE003E7003021E4D90004DE090008EF090009C
:101DCE006BE0900090F0E4FC900089E014FFECC30F
:101DDE009F5033744E2CF582E43400F583E0FF748B
:101DEE004D2CF582E43400F583EFF0746C2CF58203
:101DFE00E43400F583E0FF746B2CF582E43400F5D7
:101E0E0083EFF00C80C2900089E0FF244BF582E452
:101E1E003400F583E0FE744C2FF582E43400F58334
:101E2E00EEF0900089E0FF2469F582E43400F5833A
:101E3E00E004FE746A2FF582E43400F583EEF09030
:101E4E000007E0900005F0900008E0900006F0908A
:101E5E000009E0900007B40105E004F08003E014EF
:101E6E00F090000AE0900008B40105E004F0800351
:101E7E00E014F0900008E0B4020690000A7401F03D
:101E8E00900008E0B43E05E490000AF0900007E0F0
:101E9E00640B7028FC90004BE014FFECC39F501CA9
:101EAE00742D2CF582E43400F583E0FF900008E0F9
:101EBE00FEEFB50604A37401F00C80D9900007E084
:101ECE0064597027FC900089E014FFECC39F501BEF
:101EDE00746B2CF582E43400F583E0FF900008E08B
:101EEE00FEEFB50603E4A3F00C80DA900000740157
:011EFE00F0F3
:011EFF0022C0
:1039A300D3EF9400EE940040137D017C8E7B02DB09
:0C39B300FEDCFADDF6EF1F70E71E80E47A
:0139BF0022E5
:0300000002335672
:0C335600787FE4F6D8FD75812102339DDC
:10256300BB010CE58229F582E5833AF583E022502D
:1025730006E92582F8E622BBFE06E92582F8E22277
:0D258300E58229F582E5833AF583E4932291
:10259000BC000BBE0029EF8DF084FFADF022E4CC2F
:1025A000F875F008EF2FFFEE33FEEC33FCEE9DECF8
:1025B000984005FCEE9DFE0FD5F0E9E4CEFD22ED3E
:1025C000F8F5F0EE8420D21CFEADF075F008EF2F88
:1025D000FFED33FD4007985006D5F0F222C398FD79
:0525E0000FD5F0EA2216
:1025E500C2D5EC30E709B2D5E4C39DFDE49CFCEE11
:1025F50030E715B2D5E4C39FFFE49EFE122590C3D4
:10260500E49DFDE49CFC800312259030D507C3E4CE
:062615009FFFE49EFE227F
:10261B00A3F8E0C5F025F0F0E58215827002158372
:06262B00E0C838F0E822CF
:10188900E50824D2F582E43403F583E005082290C3
:1018990003CF3007039003D2E475F00112267402D6
:1018A90026312000E97F2ED2008018EF540F2490B2
:1018B900D43440D4FF30040BEF24BFB41A005003D2
:1018C9002461FFE50960021509050CE50C700205A4
:1018D9000B30070E9003CFE475F001122674EF0266
:1018E900264A0238FF7403D2078003E4C207F508C9
:1018F9009003CF12268BE4F509F50BF50CE5096089
:10190900077F201218CC80F5750AFFC201C200C2F8
:1019190002C203C205C206C208121898FF700D3030
:1019290007057F001218DDAF0CAE0B22B4255FC28C
:10193900D5C204121898FF24D0B40A00501A75F0C1
:101949000A780930D50508B6FF0106C6A426F6208F
:10195900D5047002D20380D924CFB41A00EF500401
:10196900C2E5D204021ADED20180C6D20080C0D2FA
:101979000280BCD2D580BAD20580B47F201218CC9F
:101989002002077401B5090040F1121889FF1218E5
:10199900CC021906D208D2068095121889FB1218B2
:1019A90089FA121889F94A4B700679AF7A1B7BFFBD
:1019B90020022EE509602A7E008E82758300122599
:1019C9006360060EEE650A70F0C2D5EBC0E0EAC0AE
:1019D900E0E9C0E0EE121B25D0E0F9D0E0FAD0E052
:1019E900FB122631FF60AAEBC0E0EAC0E0E9C0E0E3
:1019F9001218CCD0E02401F9D0E03400FAD0E0FB91
:101A0900E50A0460DCD50AD980877BFF7A1B792136
:101A1900D202809C791080027908C206C208800827
:101A2900D2D5790A8004790AC2D5E50A047002F58B
:101A39000AE4FAFDFEFF121889FC7B082001131243
:101A49001889FD7B1030000A121889FE121889FFC7
:101A59007B20EC3382D592D55013C3E43000069F26
:101A6900FFE49EFEE42001039DFDE49CFCE4CBF829
:101A7900C201EC700CCFCECDCCE824F8F870F3801D
:101A890017C3EF33FFEE33FEED33FDEC33FCEB33DD
:101A9900FB994002FB0FD8E9EB300105F8D0E0C40F
:101AA90048B201C0E00AEC4D4E4F78207B0070C26D
:101AB900EAB50A0040BCC0E0121B27D0F0D0E020F4
:101AC9000104C4C0E0C4B201C0F01218B5D0F0D509
:101AD900F0EB02190612269419A3531A1D5819740A
:101AE9004C1970421A214F1A29441A294919894354
:081AF9001A2F551A13461A13A7
:101B0100451A13471BCF5019782D197C2E199F2B7D
:101B1100198023199D201BB82A19384800001997EC
:101B21003F3F3F00790AA2D5200314300509B910BF
:101B3100020404B9080104A2D520060250010420C0
:101B410002689202B509005034C0E07F20300319C9
:101B51007F30A20272067205500F121B7EC202C2B2
:101B610006C205C2087F30800F300503E9C0E012CC
:101B710018CC300503D0E0F9D0E0B509CC30051719
:101B81007F30B9100C1218CC7F583004077F788051
:101B910003B908031218CC3002057F2D0218CC7F3F
:101BA100202008F87F2B2006F322920280CF286E96
:101BB100756C6C2900D2011218893001F8C20178C4
:101BC1000930D50108F60219382D50434958121829
:101BD100892403B405004001E4901BCA931218BD87
:0D1BE100743A1218BDD203750904021A1DD2
:103801009003FD12265C7810EC4D4E4F70047CA5A0
:103811007DA5C3EC13FCED13FDEE13FEEF13FF507A
:1038210010EC64CCFCED644CFDEE644EFEEF64CE16
:10383100FFD8DF9003FD122668EE547FFE2290032D
:0D384100FDEEF0EFA3F0A374A5F0A3F022BC
:10336200022E4EE493A3F8E493A34003F68001F205
:1033720008DFF48029E493A3F85407240CC8C3336C
:10338200C4540F4420C8834004F456800146F6DF3B
:10339200E4800B0102040810204080901521E47E95
:1033A200019360BCA3FF543F30E509541FFEE49330
:1033B200A360010ECF54C025E060A840B8E493A3F7
:1033C200FAE493A3F8E493A3C8C582C8CAC583CA22
:1033D200F0A3C8C582C8CAC583CADFE9DEE780BEDA
:01188800005F
:10263100BB010689828A83E0225002E722BBFE02A7
:09264100E32289828A83E49322DA
:10264A00BB010689828A83F0225002F722BBFE016F
:02265A00F32269
:0C265C00E0FCA3E0FDA3E0FEA3E0FF22F1
:0C266800ECF0A3EDF0A3EEF0A3EFF022E5
:10267400F8E0FBA3A3E0F925F0F0E58215827002EF
:072684001583E0FA38F02293
:09268B00EBF0A3EAF0A3E9F02250
:10269400D083D082F8E4937012740193700DA3A3D5
:1026A40093F8740193F5828883E4737402936860E9
:0626B400EFA3A3A380DFE9
:1038FF00EFB40A07740D12390A740A309811A89997
:10390F00B8130CC2983098FDA899C298B811F63028
:07391F0099FDC299F5992200
:00000001FF
